:020000040800F2
:1000000000000220850C0008310A0008390A0008A7
:10001000410A0008490A0008510A000800000000CF
:100020000000000000000000000000002142000865
:10003000590A00080000000071440008670A00081F
:10004000D50C0008D50C0008D50C0008D50C00080C
:10005000D50C0008D50C0008D50C0008D50C0008FC
:10006000D50C0008D50C0008D50C0008D50C0008EC
:10007000D50C0008D50C0008D50C0008D50C0008DC
:10008000D50C0008D50C0008D50C0008D50C0008CC
:10009000D50C0008D50C0008D50C0008D50C0008BC
:1000A000D50C0008D50C0008D50C0008D50C0008AC
:1000B000810A0008D50C0008D50C0008D50C0008F2
:1000C000D50C0008D50C0008D50C0008D50C00088C
:1000D000D50C0008D50C0008D50C0008D50C00087C
:1000E000D50C0008D50C0008D50C0008D50C00086C
:1000F000D50C0008D50C0008D50C0008D50C00085C
:10010000D50C0008D50C0008D50C0008D50C00084B
:10011000D50C0008D50C0008D50C0008D50C00083B
:10012000D50C0008D50C0008D50C0008D50C00082B
:10013000D50C00080000000000000000D50C0008ED
:10014000D50C0008D50C0008D50C0008D50C00080B
:10015000D50C0008D50C0008D50C0008D50C0008FB
:10016000D50C0008D50C0008D50C0008D50C0008EB
:10017000D50C0008D50C0008D50C000800000000C4
:1001800000000000D50C0008000000000000000086
:10019000D50C00080000000000000000D50C00088D
:1001A000000000000000000000000000D50C000866
:1001B000D50C0008D50C0008D50C0008D50C00089B
:0401C000D50C000852
:1001D00010B5054C237833B9044B13B10448AFF381
:1001E00000800123237010BD1000002000000000DB
:1001F000106A000808B5034B1BB103490348AFF36D
:10020000008008BD0000000014000020106A0008F3
:1002100053B94AB9002908BF00281CBF4FF0FF316D
:100220004FF0FF3000F088B9ADF1080C6DE904CE55
:1002300000F006F8DDF804E0DDE9022304B07047C1
:100240002DE9F047089D8E4604468846002B4AD18A
:100250008A42174662D9B2FA82F64EB1C6F120033D
:1002600001FA06F820FA03F3B74043EA0808B4405D
:100270004FEA174E1FFA87FCB8FBFEF1230C0EFB6A
:10028000118843EA084301FB0CF29A4209D9FB1892
:1002900001F1FF3080F0EA809A4240F2E7800239B3
:1002A0003B449A1AA3B2B2FBFEF00EFB102243EAC3
:1002B000024300FB0CFC9C4509D9FB1800F1FF32FE
:1002C00080F0D6809C4540F2D3803B44023840EA1F
:1002D0000140A3EB0C0300211DB1F3400022C5E94E
:1002E0000032BDE8F0878B4205D90DB1C5E90001A8
:1002F00000210846F5E7B3FA83F1002946D173459A
:1003000002D3824200F20581841A6EEB03020120BF
:100310009046002DE5D0C5E90048E2E7002A00F04C
:100320009080B2FA82F6002E40F0A4808A1A030C64
:100330004FEA174E80B2BCB20121B2FBFEFC0EFBAD
:100340001C2243EA024304FB0CF29A4207D9FB1831
:100350000CF1FF3802D29A4200F2E080C4469B1AA8
:10036000B3FBFEF20EFB123340EA034302FB04F43C
:100370009C4207D9FB1802F1FF3002D29C4200F2E6
:10038000CA8002461B1B42EA0C40A5E7C1F12006C9
:100390008B4022FA06F71F430EFA01F420FA06F307
:1003A0002EFA06FE4FEA1749234300FA01F81FFA16
:1003B00087FCBEFBF9F01C0C09FB10EE44EA0E446E
:1003C00000FB0CFEA64502FA01F209D93C1900F126
:1003D000FF3A80F09C80A64540F2998002383C4468
:1003E000A4EB0E041FFA83FEB4FBF9F309FB1344DC
:1003F0004EEA044403FB0CFCA44508D93C1903F164
:10040000FF3E80F08280A4457FD9023B3C4443EA12
:100410000040A4EB0C04A0FB02EC64457346E146EB
:1004200062D35FD05DB1B8EB030264EB090404FA58
:1004300006F622FA01F31E43CC40C5E90064002110
:100440004FE7B1FBF2FC010C41EA0E4180B240EAF9
:1004500001423B4638463C46B846BE462026B1FBE4
:10046000F7F1A2EB080241EA0C4166E7014618E702
:1004700010462CE7C6F120022EFA02F3B740B14035
:1004800020FA02F24FEA174E0A43B3FBFEF8BCB261
:100490000EFB1833110C41EA034108FB04F9B0408C
:1004A00089454FEA104380B23ED9791808F1FF3CE4
:1004B00001D289451FD8A1EB0901B1FBFEF909FB67
:1004C00004F80EFB191192B242EA0142424529D2C8
:1004D000BA1809F1FF31C4D24245C2D2A9F10201D2
:1004E0003A44BEE7F0459DD2BEEB02036CEB070C2D
:1004F0000138E14696E7A7EB09094944A8F1020C47
:10050000B1FBFEF909FB04F8DBE773467FE75046D1
:1005100066E70846FDE63B44023A33E7ACF1020CDD
:100520003B441CE749469CE7A1EB0901C446B1FBEB
:10053000FEF909FB04F8C4E7704700BF80B500AFBF
:100540000C4A00210C4803F085FA03460B4A13605D
:100550000B4A00210B4803F07DFA03460A4A136058
:100560000A4A00210A4803F075FA0346094A136053
:1005700000BF80BD606A00089905000834000020B3
:10058000846A0008CD05000838000020A86A000829
:100590003D0600083C00002080B582B000AF7860C6
:1005A000084B1B684FF0FF31184604F0B3FB0346BD
:1005B000012BF5D10421044800F0D7FE642003F09C
:1005C000DBFAEDE7300000200000024080B58AB081
:1005D00000AF78604FF0FF31012005F0E9FD07F131
:1005E000140300221946124802F083F807F11003A1
:1005F000002219460E4802F05EF901210D4800F074
:1006000083FE0346012BE5D13B7D3B727B7D7B72F4
:10061000BB7DBB720023BB810123BB73064B1868F3
:1006200007F108010023002204F0F2F8D2E700BF2E
:1006300040000020000002402C00002080B586B061
:1006400000AF78600023FB752E4B1B6807F10C018F
:100650004FF0FF32184604F07BFA0346012BF3D12A
:10066000FB7D032B45D801A252F823F07D0600083C
:10067000AF060008C7060008CD060008BB7C012BAA
:1006800036D101220221204800F056FE002204212A
:100690001D4800F051FE012208211B4800F04CFECD
:1006A0000123FB754FF47A7003F066FA20E0002214
:1006B0000821154800F040FE0223FB754FF4FA6054
:1006C00003F05AFA15E00323FB7512E00022022121
:1006D0000D4800F031FE012204210B4800F02CFEF1
:1006E00000220821084800F027FE0023FB7500E0E7
:1006F00000BF064B186800230022002104F088F890
:10070000A2E700BF2C0000200000024030000020C3
:1007100080B588B000AF07F10C0300221A605A6060
:100720009A60DA601A610023BB60254B1B6B244A78
:1007300043F080031363224B1B6B03F08003BB6009
:10074000BB6800237B601E4B1B6B1D4A43F00103FB
:1007500013631B4B1B6B03F001037B607B6800235F
:100760003B60174B1B6B164A43F008031363144B93
:100770001B6B03F008033B603B6800220E2111480D
:1007800000F0DAFD0123FB6000233B6100237B6165
:1007900007F10C0319460B4800F022FC0E23FB6006
:1007A00001233B6100237B610023BB6107F10C0344
:1007B0001946044800F014FC00BF2037BD4680BD38
:1007C000003802400000024080B500AF00F084FA1B
:1007D00000F016F8FFF79CFF00F07AF800F06CF9D3
:1007E00000F0DEF9054802F0C3F903F0E9F8FFF77D
:1007F000A5FE03F009F900BFFDE700BF600000207F
:1008000080B594B000AF07F11C03342200211846D4
:1008100006F0C4F807F1080300221A605A609A60D3
:10082000DA601A6100237B60244B1B6C234A43F07F
:1008300080531364214B1B6C03F080537B607B68F7
:1008400000233B601E4B1B6823F440431C4A43F4C7
:10085000804313601A4B1B6803F440433B603B68C2
:100860000923FB614FF480333B6200237B62012349
:100870003B6300237B6307F11C03184601F07EFBFA
:100880000346002B01D000F01DF80F23BB600123AD
:10089000FB6000233B6100237B610023BB6107F108
:1008A00008030021184600F07BFD0346002B01D011
:1008B00000F008F800BF5037BD4680BD0038024048
:1008C0000070004080B400AF72B600BF00BFFDE70B
:1008D00080B586B000AF3B1D00221A605A609A6056
:1008E000DA601A6100233B60244B254A1A60234BCF
:1008F00000225A60214B7F229A60204BFF22DA604F
:100900001E4B00221A611D4B00225A611B4B002214
:100910009A611A4801F0D0FD0346002B01D0FFF781
:10092000D1FF00233B7100237B710023BB710023A7
:100930003B6100237B613B1D012219460F4801F0FA
:100940003EFE0346002B01D0FFF7BCFF01233B70A6
:1009500001237B700123BB700023FB703B46012207
:100960001946064801F023FF0346002B01D0FFF78C
:10097000A9FF00BF1837BD4680BD00BF4000002062
:100980000028004080B59AB000AF786007F10C03F2
:100990005C220021184606F001F87B681B680C4AAF
:1009A000934211D12023FB604FF40073FB6407F1E5
:1009B0000C03184600F00EFE0346002B01D0FFF793
:1009C00081FF044B01221A6000BF6837BD4680BD1D
:1009D000002800403C0E474280B582B000AF0023A3
:1009E0007B60124B5B6C114A43F4804353640F4BA2
:1009F0005B6C03F480437B607B6800233B600B4BA4
:100A00001B6C0A4A43F080531364084B1B6C03F0C1
:100A100080533B603B6800220F216FF0010000F023
:100A2000A8FA00BF0837BD4680BD00BF00380240AD
:100A300080B400AF00BFFDE780B400AF00BFFDE7AA
:100A400080B400AF00BFFDE780B400AF00BFFDE79A
:100A500080B400AF00BFFDE780B400AF00BFBD466B
:100A60005DF8047B704780B500AF00F087F905F0B2
:100A700011FA0346012B01D003F02EFD00BF80BD0B
:100A800080B500AF024802F0E3F800BF80BD00BFB0
:100A90006000002080B400AF064BD3F88830054AD0
:100AA00043F47003C2F8883000BFBD465DF8047B94
:100AB000704700BF00ED00E080B586B000AF07F1E1
:100AC000080300221A605A609A60DA603B460022EE
:100AD0001A605A601E4B4FF080421A601C4B42F263
:100AE000CF025A601A4B00229A60194B4FF4FA72E7
:100AF000DA60174B00221A61154B00229A611448E4
:100B000001F0E6FF0346002B01D0FFF7DBFE4FF4B8
:100B10008053BB6007F1080319460D4802F088F9BD
:100B20000346002B01D0FFF7CDFE00233B600023DE
:100B30007B603B461946064802F0BAFB0346002B91
:100B400001D0FFF7BFFE00BF1837BD4680BD00BF14
:100B50006000002080B584B000AF78607B681B68BF
:100B6000B3F1804F15D10023FB600C4B1B6C0B4A7B
:100B700043F001031364094B1B6C03F00103FB609A
:100B8000FB68002205211C2000F0F3F91C2000F076
:100B90000CFA00BF1037BD4680BD00BF00380240D0
:100BA00080B500AF114B124A1A60104B4FF4E1327E
:100BB0005A600E4B00229A600C4B0022DA600B4BFD
:100BC00000221A61094B0C225A61084B00229A61DB
:100BD000064B0022DA61054802F0FAFB0346002BBF
:100BE00001D0FFF76FFE00BF80BD00BFA80000204E
:100BF0000044004080B58AB000AF786007F114036C
:100C000000221A605A609A60DA601A617B681B6879
:100C1000194A93422BD100233B61184B1B6C174A96
:100C200043F400331364154B1B6C03F400333B6136
:100C30003B690023FB60114B1B6B104A43F0080318
:100C400013630E4B1B6B03F00803FB60FB68602310
:100C50007B610223BB610023FB6103233B6207230B
:100C60007B6207F114031946054800F0B9F900BF8B
:100C70002837BD4680BD00BF004400400038024018
:100C8000000C0240DFF834D0FFF704FF0C480D4998
:100C90000D4A002302E0D458C4500433C4188C42D7
:100CA000F9D30A4A0A4C002301E013600432A2423D
:100CB000FBD305F07BFEFFF787FD704700000220A5
:100CC0000000002010000020F46A0008100000203E
:100CD000444A0020FEE7000080B500AF0E4B1B68C1
:100CE0000D4A43F4007313600B4B1B680A4A43F42C
:100CF00080631360084B1B68074A43F480731360DA
:100D0000032000F02BF90F2000F008F8FFF764FE35
:100D10000023184680BD00BF003C024080B582B071
:100D200000AF7860124B1A68124B1B7819464FF4CB
:100D30007A73B3FBF1F3B2FBF3F3184600F043F917
:100D40000346002B01D001230EE07B680F2B0AD84D
:100D5000002279684FF0FF3000F00BF9064A7B68FB
:100D60001360002300E0012318460837BD4680BD0C
:100D700000000020080000200400002080B400AF24
:100D8000064B1B781A46064B1B681344044A136033
:100D900000BFBD465DF8047B704700BF080000201F
:100DA000F000002080B400AF034B1B681846BD461E
:100DB0005DF8047B704700BFF000002080B485B070
:100DC00000AF78607B6803F00703FB600C4BDB68C7
:100DD000BB60BA684FF6FF031340BB60FB681A02A2
:100DE000BB68134343F0BF6343F40033BB60044A62
:100DF000BB68D36000BF1437BD465DF8047B704705
:100E000000ED00E080B400AF044BDB681B0A03F088
:100E100007031846BD465DF8047B704700ED00E00F
:100E200080B483B000AF0346FB7197F90730002B05
:100E30000BDBFB7903F01F02074997F907305B09C9
:100E4000012000FA02F241F8232000BF0C37BD4612
:100E50005DF8047B704700BF00E100E080B483B020
:100E600000AF03463960FB7197F90730002B0ADBAE
:100E70003B68DAB20C4997F907301201D2B20B4441
:100E800083F800230AE03B68DAB20849FB7903F0F3
:100E90000F03043B1201D2B20B441A7600BF0C3789
:100EA000BD465DF8047B704700E100E000ED00E026
:100EB00080B489B000AFF860B9607A60FB6803F075
:100EC0000703FB61FB69C3F10703042B28BF04235D
:100ED000BB61FB690433062B02D9FB69033B00E0CD
:100EE00000237B614FF0FF32BB6902FA03F3DA4360
:100EF000BB681A407B699A404FF0FF317B6901FA69
:100F000003F3D9437B680B40134318462437BD468F
:100F10005DF8047B7047000080B582B000AF786058
:100F20007B68013BB3F1807F01D301230FE00A4AC4
:100F30007B68013B53600F214FF0FF30FFF78EFFBE
:100F4000054B00229A60044B07221A6000231846C2
:100F50000837BD4680BD00BF10E000E080B582B01C
:100F600000AF78607868FFF729FF00BF0837BD46FB
:100F700080BD80B586B000AF0346B9607A60FB7370
:100F800000237B61FFF73EFF78617A68B968786972
:100F9000FFF78EFF024697F90F3011461846FFF70C
:100FA0005DFF00BF1837BD4680BD80B582B000AF81
:100FB0000346FB7197F907301846FFF731FF00BF72
:100FC0000837BD4680BD80B582B000AF78607868D4
:100FD000FFF7A2FF034618460837BD4680BD000054
:100FE00080B489B000AF7860396000237B61002352
:100FF0003B610023BB610023FB6165E10122FB69CA
:1010000002FA03F37B613B681B687A6913403B611A
:101010003A697B699A4240F054813B685B6803F00F
:101020000303012B05D03B685B6803F00303022B2D
:1010300030D17B689B68BB61FB695B00032202FACD
:1010400003F3DB43BA691340BB613B68DA68FB69B1
:101050005B0002FA03F3BA691343BB617B68BA69A8
:101060009A607B685B68BB610122FB6902FA03F34B
:10107000DB43BA691340BB613B685B681B0903F043
:101080000102FB6902FA03F3BA691343BB617B688F
:10109000BA695A603B685B6803F00303032B17D0FF
:1010A0007B68DB68BB61FB695B00032202FA03F328
:1010B000DB43BA691340BB613B689A68FB695B001C
:1010C00002FA03F3BA691343BB617B68BA69DA6059
:1010D0003B685B6803F00303022B23D1FB69DA084A
:1010E0007B68083253F82230BB61FB6903F00703C9
:1010F0009B000F2202FA03F3DB43BA691340BB6182
:101100003B681A69FB6903F007039B0002FA03F3CB
:10111000BA691343BB61FB69DA087B680832B969B5
:1011200043F822107B681B68BB61FB695B000322EC
:1011300002FA03F3DB43BA691340BB613B685B68A7
:1011400003F00302FB695B0002FA03F3BA6913437D
:10115000BB617B68BA691A603B685B6803F4403323
:10116000002B00F0AE800023FB605D4B5B6C5C4AA3
:1011700043F4804353645A4B5B6C03F48043FB603D
:10118000FB68584AFB699B08023352F82330BB6165
:10119000FB6903F003039B000F2202FA03F3DB4316
:1011A000BA691340BB617B684F4A934225D07B6884
:1011B0004E4A93421FD07B684D4A934219D07B68B8
:1011C0004C4A934213D07B684B4A93420DD07B68C4
:1011D0004A4A934207D07B68494A934201D1062389
:1011E0000CE007230AE0052308E0042306E00323BC
:1011F00004E0022302E0012300E00023FA6902F088
:10120000030292009340BA691343BB613549FB69FD
:101210009B080233BA6941F823203A4B9B68BB61B3
:101220003B69DB43BA691340BB613B685B6803F40D
:101230008013002B03D0BA693B691343BB61314A69
:10124000BB6993602F4BDB68BB613B69DB43BA69C9
:101250001340BB613B685B6803F40013002B03D0B1
:10126000BA693B691343BB61264ABB69D360254B0E
:101270005B68BB613B69DB43BA691340BB613B6898
:101280005B6803F40033002B03D0BA693B69134356
:10129000BB611C4ABB6953601A4B1B68BB613B694D
:1012A000DB43BA691340BB613B685B6803F480337E
:1012B000002B03D0BA693B691343BB61114ABB6978
:1012C0001360FB690133FB61FB690F2B7FF696AE60
:1012D00000BF00BF2437BD465DF8047B704700BFE8
:1012E0000038024000380140000002400004024083
:1012F00000080240000C02400010024000140240AE
:1013000000180240003C014080B485B000AF786016
:101310000B467B807B681A697B881340002B02D0C8
:101320000123FB7301E00023FB73FB7B184614379A
:10133000BD465DF8047B704780B483B000AF786031
:101340000B467B8013467B707B78002B03D07A881A
:101350007B689A6103E07B881A047B689A6100BF0E
:101360000C37BD465DF8047B704780B485B000AF94
:1013700078600B467B807B685B69FB607A88FB68E2
:1013800013401A04FB68D9437B880B401A437B68DF
:101390009A6100BF1437BD465DF8047B70470000BA
:1013A00080B584B000AF786039607B68002B01D1D4
:1013B0000123CCE0684B1B6803F00F033A689A42A4
:1013C0000CD9654B3A68D2B21A70634B1B6803F0B4
:1013D0000F033A689A4201D00123B8E07B681B688A
:1013E00003F00203002B20D07B681B6803F004038A
:1013F000002B05D0594B9B68584A43F4E053936047
:101400007B681B6803F00803002B05D0534B9B68D7
:10141000524A43F460439360504B9B6823F0F002C0
:101420007B689B684D4913438B607B681B6803F0A6
:101430000103002B44D07B685B68012B07D1474B2D
:101440001B6803F40033002B19D101237FE07B6874
:101450005B68022B03D07B685B68032B07D13F4B93
:101460001B6803F00073002B09D101236FE03B4B95
:101470001B6803F00203002B01D1012367E0374B07
:101480009B6823F003027B685B68344913438B60DD
:10149000FFF788FCF8600AE0FFF784FC0246FB686F
:1014A000D31A41F28832934201D903234FE02B4BE8
:1014B0009B6803F00C027B685B689B009A42EBD14F
:1014C000254B1B6803F00F033A689A420CD2224B5B
:1014D0003A68D2B21A70204B1B6803F00F033A68C7
:1014E0009A4201D0012332E07B681B6803F00403B9
:1014F000002B08D0194B9B6823F4E0527B68DB6813
:10150000164913438B607B681B6803F00803002BAC
:1015100009D0124B9B6823F460427B681B69DB0097
:101520000E4913438B6000F07FFB02460B4B9B6818
:101530001B0903F00F030A49CB5C22FA03F3094AA3
:101540001360094B1B681846FFF7E8FB0023184699
:101550001037BD4680BD00BF003C0240003802404D
:10156000CC6A0008000000200400002080B400AF16
:10157000034B1B681846BD465DF8047B704700BFEF
:101580000000002080B500AFFFF7F0FF0246054BDA
:101590009B689B0A03F007030349CB5C22FA03F321
:1015A000184680BD00380240DC6A000880B500AFF4
:1015B000FFF7DCFF0246054B9B685B0B03F007035C
:1015C0000349CB5C22FA03F3184680BD0038024081
:1015D000DC6A000880B58CB000AF786000237B62C5
:1015E00000233B620023FB610023BB6100237B617E
:1015F00000233B610023FB600023FB620023BB62EE
:101600007B681B6803F00103002B10D06F4BD3F8ED
:101610008C3023F0C0627B689B6B6C491343C1F82C
:101620008C307B689B6B002B01D10123FB627B68B4
:101630001B6803F00203002B10D0644BD3F88C30EE
:1016400023F0C0527B68DB6B60491343C1F88C30D8
:101650007B68DB6B002B01D10123FB627B681B687D
:1016600003F00403002B17D0584BD3F88C3023F42D
:1016700040127B681B6B55491343C1F88C307B6863
:101680001B6BB3F5801F01D10123FB627B681B6BD1
:10169000002B01D10123BB627B681B6803F00803A8
:1016A000002B17D0494BD3F88C3023F440027B68D1
:1016B0005B6B46491343C1F88C307B685B6BB3F5B9
:1016C000800F01D10123FB627B685B6B002B01D192
:1016D0000123BB627B681B6803F02003002B00F032
:1016E0008A800023BB60394B1B6C384A43F080531F
:1016F0001364364B1B6C03F08053BB60BB68344BE8
:101700001B68334A43F480731360FFF74BFB786226
:1017100008E0FFF747FB02467B6AD31A022B01D988
:10172000032378E22A4B1B6803F48073002BF0D06C
:10173000264B1B6F03F440733B623B6A002B2FD098
:101740007B681B6C03F440733A6A9A4228D01F4BA3
:101750001B6F23F440733B621E4B01221A601D4B2A
:1017600000221A60194A3B6A1367184B1B6F03F07B
:101770000103012B14D1FFF715FB78620AE0FFF794
:1017800011FB02467B6AD31A41F28832934201D997
:10179000032340E20D4B1B6F03F00203002BEED03E
:1017A0007B681B6C03F44073B3F5407F14D1074B87
:1017B0009B6823F4F8127B681B6C23F0704323F4BE
:1017C0004073024913438B600CE000BF00380240B5
:1017D00000700040400E47424A4B9B68494A23F440
:1017E000F8139360474B1A6F7B681B6CC3F30B03B2
:1017F000444913430B677B681B6803F01003002BFD
:1018000004D07B6893F858203F4B1A607B681B68B4
:1018100003F08003002B0AD03A4BD3F8943023F422
:1018200040027B68DB6C37491343C1F894307B6816
:101830001B6803F04003002B0AD0324BD3F89430DE
:1018400023F080627B689B6C2E491343C1F894306F
:101850007B681B6803F48073002B11D0294BD3F8ED
:10186000943023F000627B685B6D26491343C1F816
:1018700094307B685B6DB3F1006F01D10123BB62D3
:101880007B681B6803F40073002B0AD01D4BD3F850
:10189000943023F080527B685B6C1A491343C1F883
:1018A00094307B681B6803F48063002B11D0154BC8
:1018B000D3F8943023F000527B681B6D1149134319
:1018C000C1F894307B681B6DB3F1005F01D1012337
:1018D000FB62FB6A012B05D07B681B68B3F5006FC8
:1018E00040F0FF80094B00221A60FFF75BFA786234
:1018F0000EE0FFF757FA02467B6AD31A022B07D98C
:10190000032388E100380240E01147426800474263
:101910007E4B1B6803F00063002BEAD17B681B68D9
:1019200003F00103002B03D07B689B6B002B09D0D5
:101930007B681B6803F00203002B28D07B68DB6BFD
:10194000002B24D1714BD3F884301B0C03F003031C
:1019500001335B00FB616D4BD3F884301B0E03F049
:101960000F03BB617B685A687B689B689B011A43C5
:10197000FB695B08013B1B041A43BB691B061A4346
:101980007B685B691B0761491343C1F884307B683E
:101990001B6803F00403002B04D07B681B6BB3F5BA
:1019A000801F0AD07B681B6803F00803002B35D02A
:1019B0007B685B6BB3F5800F30D1544BD3F8843028
:1019C0001B0C03F0030301335B00FB614F4BD3F8A7
:1019D00084301B0F03F007037B617B685A687B68C8
:1019E0009B689B011A43FB695B08013B1B041A437C
:1019F0007B681B691B061A437B691B07434913431A
:101A0000C1F88430414BD3F88C3023F01F027B683F
:101A10009B6A013B3D491343C1F88C307B681B68CE
:101A200003F48063002B29D07B681B6DB3F1005F4A
:101A300024D1364BD3F884301B0C03F0030301335D
:101A40005B00BB61314BD3F884301B0F03F00703FD
:101A50007B617B685A687B689B689B011A437B6843
:101A6000DB685B08013B1B041A43BB691B061A4376
:101A70007B691B0725491343C1F884307B681B68C9
:101A800003F40063002B16D07B685A687B689B6860
:101A90009B011A437B68DB685B08013B1B041A430C
:101AA0007B681B691B061A437B685B691B07174928
:101AB0001343C1F88430164B01221A60FFF772F904
:101AC000786208E0FFF76EF902467B6AD31A022BB0
:101AD00001D903239FE00D4B1B6803F00063002B2B
:101AE000F0D0BB6A012B40F095800A4B00221A60AF
:101AF000FFF758F978620FE0FFF754F902467B6A66
:101B0000D31A022B08D9032385E000BF0038024016
:101B10006800474270004742414B1B6803F0005386
:101B2000B3F1005FE8D07B681B6803F00403002B6F
:101B300003D07B681B6B002B09D07B681B6803F00C
:101B40000803002B2BD07B685B6B002B27D1344B19
:101B5000D3F888301B0C03F0030301335B003B61B7
:101B60007B689A697B68DB699B011A433B695B0868
:101B7000013B1B041A437B685B6A1B06284913431D
:101B8000C1F88830264BD3F88C3023F4F8527B68A8
:101B9000DB6A013B1B0222491343C1F88C307B688E
:101BA0001B6803F48073002B1DD07B685B6DB3F161
:101BB000006F18D11A4BD3F888301B0E03F00F03B7
:101BC000FB607B689A697B68DB699B011A437B68D1
:101BD0001B6A5B08013B1B041A43FB681B06104988
:101BE0001343C1F888300F4B01221A60FFF7DAF86F
:101BF000786208E0FFF7D6F802467B6AD31A022B18
:101C000001D9032307E0064B1B6803F00053B3F12F
:101C1000005FEFD1002318463037BD4680BD00BFBE
:101C200000380240700047422DE9B04FA6B000AF27
:101C30000023C7F88C300023C7F894300023C7F87E
:101C400088300023C7F884300023C7F89030C84B91
:101C50009B6803F00C030C2B00F27E8101A252F86A
:101C600023F000BF991C0008591F0008591F0008E5
:101C7000591F0008A11C0008591F0008591F00081F
:101C8000591F0008A91C0008591F0008591F000807
:101C9000591F0008131E0008B64BC7F890305FE1CB
:101CA000B54BC7F890305BE1B14B5B6803F03F0385
:101CB000C7F88C30AE4B5B6803F48003002B31D047
:101CC000AB4B5B689B090022BB66FA66BB6EC3F335
:101CD00008033B6600237B66A74BD7E918452A46D5
:101CE00003FB02F20023214601FB03F31344A24A43
:101CF0002146A1FB0212FA670A46BA67FA6F13443B
:101D0000FB67D7F88C300022BB65FA65D7E916234C
:101D1000D7E91E01FEF77CFA02460B461346C7F8C8
:101D2000943064E0924B5B689B0900223B657A65C6
:101D30003B6DC3F30803BB640023FB64D7E9124582
:101D400022462B464FF000004FF00001590141EAB6
:101D5000D261500102460B462146511A396129468B
:101D600063EB01037B614FF000024FF00003D7E902
:101D700004AB59468B01514643EA916351468A01AF
:101D80005146B2EB0108594663EB01094FF00002DE
:101D90004FF000034FEAC90343EA58734FEAC80201
:101DA00090469946234618EB0303BB602B4649EB4C
:101DB0000303FB604FF000024FF00003D7E9024538
:101DC00029468B02214643EA915321468A02104656
:101DD0001946D7F88C3000223B647A64D7E9102387
:101DE000FEF716FA02460B461346C7F89430604BCE
:101DF0005B681B0C03F0030301335B00C7F88830FA
:101E0000D7F89420D7F88830B2FBF3F3C7F89030B6
:101E1000A6E0574B5B6803F03F03C7F88C30544B88
:101E20005B6803F48003002B2AD0514B5B689B094D
:101E30000022BB63FA63BB6BC3F3080000214E4B67
:101E400003FB01F2002300FB03F313444A4AA0FB07
:101E500002127A670A463A677A6F13447B67D7F8AB
:101E60008C3000223B637A63D7E90C23D7E91C014D
:101E7000FEF7CEF902460B461346C7F894305BE0F6
:101E80003B4B5B689B090022BB62FA62BB6AC3F3EF
:101E900008033B6200237B62D7E9088942464B4630
:101EA0004FF000004FF00001590141EAD2615001AA
:101EB00002460B464146B2EB010A494663EB010B71
:101EC0004FF000024FF000034FEA8B1343EA9A638E
:101ED0004FEA8A12B2EB0A0463EB0B054FF00002E3
:101EE0004FF00003EB0043EA5473E20014461D4632
:101EF0004346E3183B604B4645EB03037B604FF0E2
:101F000000024FF00003D7E9004529468B02214625
:101F100043EA915321468A0210461946D7F88C307D
:101F20000022BB61FA61D7E90623FEF771F9024688
:101F30000B461346C7F894300D4B5B681B0F03F03C
:101F40000703C7F88430D7F89420D7F88430B2FB61
:101F5000F3F3C7F8903003E0064BC7F8903000BFAA
:101F6000D7F8903018469837BD46BDE8B08F00BF0F
:101F7000003802400024F40040787D0180B586B02E
:101F800000AF78607B68002B01D101238DE27B6874
:101F90001B6803F00103002B00F08380944B9B68C7
:101FA00003F00C03042B19D0914B9B6803F00C0336
:101FB000082B06D18E4B5B6803F48003B3F5800FCA
:101FC0000CD08B4B9B6803F00C030C2B12D1884B6D
:101FD0005B6803F48003B3F5800F0BD1844B1B685F
:101FE00003F40033002B5BD07B685B68002B57D178
:101FF00001235AE27B685B68B3F5803F06D17C4BD6
:102000001B687B4A43F4803313601DE07B685B6888
:10201000B3F5A02F0CD1764B1B68754A43F480238F
:102020001360734B1B68724A43F4803313600BE0F8
:102030006F4B1B686E4A23F4803313606C4B1B6834
:102040006B4A23F4802313607B685B68002B13D0FA
:10205000FEF7A8FE386108E0FEF7A4FE02463B69E1
:10206000D31A642B01D903231FE2614B1B6803F4CD
:102070000033002BF0D014E0FEF794FE386108E046
:10208000FEF790FE02463B69D31A642B01D9032365
:102090000BE2574B1B6803F40033002BF0D100E038
:1020A00000BF7B681B6803F00203002B6FD0504B0E
:1020B0009B6803F00C03002B17D04D4B9B6803F07B
:1020C0000C03082B05D14A4B5B6803F48003002BFB
:1020D0000BD0474B9B6803F00C030C2B1CD1444BDB
:1020E0005B6803F48003002B16D1414B1B6803F09F
:1020F0000203002B05D07B68DB68012B01D0012394
:10210000D3E13B4B1B6823F0F8027B681B69DB00C3
:10211000374913430B603AE07B68DB68002B20D023
:10212000344B01221A60FEF73DFE386108E0FEF7ED
:1021300039FE02463B69D31A022B01D90323B4E1CD
:102140002B4B1B6803F00203002BF0D0284B1B68BD
:1021500023F0F8027B681B69DB00254913430B6001
:1021600015E0244B00221A60FEF71CFE386108E0DF
:10217000FEF718FE02463B69D31A022B01D903234E
:1021800093E11B4B1B6803F00203002BF0D17B682B
:102190001B6803F00803002B36D07B685B69002BBB
:1021A00016D0154B01221A60FEF7FCFD386108E0DD
:1021B000FEF7F8FD02463B69D31A022B01D903232F
:1021C00073E10B4B5B6F03F00203002BF0D01BE0BD
:1021D000094B00221A60FEF7E5FD38610EE0FEF7BC
:1021E000E1FD02463B69D31A022B07D903235CE1C8
:1021F0000038024000004742800E47428A4B5B6F26
:1022000003F00203002BEAD17B681B6803F0040390
:10221000002B00F097800023FB75834B1B6C03F0B1
:102220008053002B0FD10023BB607F4B1B6C7E4A79
:1022300043F0805313647C4B1B6C03F08053BB60F2
:10224000BB680123FB75794B1B6803F48073002B7B
:1022500018D1764B1B68754A43F480731360FEF700
:10226000A1FD386108E0FEF79DFD02463B69D31AE7
:10227000022B01D9032318E16C4B1B6803F4807314
:10228000002BF0D07B689B68012B06D1664B1B6F3F
:10229000654A43F0010313671CE07B689B68052BCC
:1022A0000CD1614B1B6F604A43F0040313675E4B14
:1022B0001B6F5D4A43F0010313670BE05A4B1B6F22
:1022C000594A23F001031367574B1B6F564A23F0FB
:1022D000040313677B689B68002B15D0FEF762FD33
:1022E00038610AE0FEF75EFD02463B69D31A41F20F
:1022F0008832934201D90323D7E04B4B1B6F03F085
:102300000203002BEED014E0FEF74CFD38610AE02A
:10231000FEF748FD02463B69D31A41F288329342E8
:1023200001D90323C1E0404B1B6F03F00203002BD4
:10233000EED1FB7D012B05D13B4B1B6C3A4A23F0C0
:10234000805313647B689B69002B00F0AD80364B93
:102350009B6803F00C03082B60D07B689B69022B01
:1023600045D1334B00221A60FEF71CFD386108E0AE
:10237000FEF718FD02463B69D31A022B01D903234D
:1023800093E0294B1B6803F00073002BF0D17B68AE
:10239000DA697B681B6A1A437B685B6A9B011A4394
:1023A0007B689B6A5B08013B1B041A437B68DB6A02
:1023B0001B061A437B681B6B1B071B4913434B60AF
:1023C0001B4B01221A60FEF7EDFC386108E0FEF7B6
:1023D000E9FC02463B69D31A022B01D9032364E0CE
:1023E000114B1B6803F00073002BF0D05CE0104B26
:1023F00000221A60FEF7D6FC386108E0FEF7D2FC36
:1024000002463B69D31A022B01D903234DE0064B48
:102410001B6803F00073002BF0D145E07B689B69DB
:10242000012B07D1012340E000380240007000403A
:10243000600047421F4B5B68FB607B689B69012B18
:1024400030D0FB6803F480027B68DB699A4229D1B3
:10245000FB6803F03F027B681B6A9A4222D1FA684C
:1024600047F6C07313407A68526A9201934219D1B9
:10247000FB6803F440327B689B6A5B08013B1B04EA
:102480009A420FD1FB6803F070627B68DB6A1B061F
:102490009A4207D1FB6803F0E0427B681B6B1B0785
:1024A0009A4201D0012300E0002318461837BD46A8
:1024B00080BD00BF0038024080B584B000AF7860B6
:1024C0000123FB737B68002B01D1012373E07B6840
:1024D0005B7FDBB2002B05D17B6800221A7778681E
:1024E000FEF750FA7B6802225A777B681B68DB682C
:1024F00003F01003102B55D07B681B68CA225A6268
:102500007B681B6853225A62786800F049FA0346D8
:10251000FB73FB7B002B2CD17B681B689B687A6864
:10252000126823F4E00323F0400393607B681B6888
:1025300099687B685A687B681B691A437B685B698A
:102540001A437B681B680A439A607B681B687A6839
:10255000D2681A617B681B6819697B689B681A04DA
:102560007B681B680A431A61786800F050FA0346DA
:10257000FB73FB7B002B10D17B681B681A6C7B689C
:102580001B6822F480221A647B681B68196C7B68C4
:102590009A697B681B680A431A647B681B68FF2280
:1025A0005A6201E00023FB73FB7B002B02D17B68A6
:1025B00001225A77FB7B18461037BD4680BD90B587
:1025C00087B000AFF860B9607A6000237B61FB6878
:1025D0001B7F012B01D1022387E0FB6801221A77C0
:1025E000FB6802225A777B68002B26D1FB681B68A8
:1025F0009B6803F04003002B02D1BB680022DA7015
:10260000BB681B78184600F027FA03461C04BB6819
:102610005B78184600F020FA03461B021C43BB6897
:102620009B78184600F018FA034644EA0302BB6898
:10263000DB789B0513437B6118E0FB681B689B6894
:1026400003F04003002B02D1BB680022DA70BB68A4
:102650001B781A04BB685B781B021343BA68927834
:102660001A43BB68DB789B0513437B61FB681B68DF
:10267000CA225A62FB681B6853225A62F86800F04B
:102680008FF90346FB74FB7C002B20D1FB681A6892
:102690007B6903F07F3323F0FE431360FB681B6804
:1026A0009A68FB681B6822F480229A60FB681B68AA
:1026B0009968BB68DA68BB681B691A43FB681B68CA
:1026C0000A439A60F86800F0A2F90346FB74FB7CA9
:1026D000002B02D1FB6801225A77FB681B68FF229E
:1026E0005A62FB6800221A77FB7C18461C37BD46ED
:1026F00090BD80B586B000AFF860B9607A60002305
:102700007B61FB681B689A6ABB685A60FB681B6840
:102710001B69C3F30E02BB689A60FB681B681B68E9
:1027200003F07F3323F0FE437B617B691B0CDBB23C
:1027300003F03F03DAB2BB681A707B691B0ADBB295
:1027400003F07F03DAB2BB685A707B69DBB203F037
:102750007F03DAB2BB689A707B699B0DDBB203F032
:102760000103DAB2BB68DA707B68002B1AD1BB6850
:102770001B78184600F08EF903461A46BB681A709B
:10278000BB685B78184600F085F903461A46BB68BB
:102790005A70BB689B78184600F07CF903461A46CD
:1027A000BB689A70002318461837BD4680BD90B5A7
:1027B00087B000AFF860B9607A6000237B61FB6886
:1027C0001B7F012B01D1022371E0FB6801221A77E4
:1027D000FB6802225A777B68002B0ED1BB685B78BE
:1027E00003F01003002B08D0BB685B7823F01003C4
:1027F000DBB20A33DAB2BB685A707B68002B1CD19B
:10280000BB68DB78184600F027F903461C04BB6858
:102810005B78184600F020F903461B021C43BB6896
:102820009B78184600F018F9034644EA0302BB6897
:102830001B785B0313437B610EE0BB68DB781A04F3
:10284000BB685B781B021343BA6892781A43BB6873
:102850001B785B0313437B61FB681B68CA225A62C7
:10286000FB681B6853225A62F86800F099F8034627
:10287000FB74FB7C002B0CD1FB681A687B6923F08E
:102880007F4323F0C0035360F86800F0C0F80346AC
:10289000FB74FB7C002B02D1FB6801225A77FB689A
:1028A0001B68FF225A62FB6800221A77FB7C1846DD
:1028B0001C37BD4690BD80B586B000AFF860B960EA
:1028C0007A6000237B61FB681B685B6823F07F43B1
:1028D00023F0C0037B617B691B0CDAB2BB68DA7042
:1028E0007B691B0ADBB203F01F03DAB2BB685A70C4
:1028F0007B69DBB203F03F03DAB2BB689A707B6995
:102900005B0BDBB203F00703DAB2BB681A707B68BB
:10291000002B1AD1BB68DB78184600F0BBF80346E1
:102920001A46BB68DA70BB685B78184600F0B2F8EC
:1029300003461A46BB685A70BB689B78184600F07D
:10294000A9F803461A46BB689A7000231846183740
:10295000BD4680BD80B584B000AF78600023FB60C9
:102960007B681B680D4ADA60FEF71CFAF86009E024
:10297000FEF718FA0246FB68D31AB3F57A7F01D93D
:10298000032307E07B681B68DB6803F02003002B50
:10299000EED0002318461037BD4680BD5F7F010092
:1029A00080B584B000AF78600023BB600023FB7368
:1029B0007B681B68DB6803F04003002B22D17B6837
:1029C0001B68DA687B681B6842F08002DA60FEF7F9
:1029D000E9F9B8600CE0FEF7E5F90246BB68D31AE6
:1029E000B3F57A7F04D97B6804225A770123FB73FD
:1029F0007B681B68DB6803F04003002B02D1FB7B84
:102A0000012BE8D1FB7B18461037BD4680BD80B551
:102A100084B000AF78600023FB737B681B68DA68C2
:102A20007B681B6822F08002DA607B681B689B6809
:102A300003F02003002B0AD17868FFF78BFF0346D1
:102A4000002B04D07B6804225A770123FB73FB7BA5
:102A500018461037BD4680BD80B485B000AF034630
:102A6000FB710023FB6005E0FB680133FB60FB7931
:102A70000A3BFB71FB79092BF6D8FB68DBB21B0123
:102A8000DAB2FB791343DBB218461437BD465DF862
:102A9000047B704780B485B000AF0346FB71002310
:102AA000FB60FB791B09DBB21A4613469B001344FB
:102AB0005B00FB60FB68DAB2FB7903F00F03DBB26B
:102AC0001344DBB218461437BD465DF8047B7047EB
:102AD00080B582B000AF78607B68002B01D1012304
:102AE00041E07B6893F83D30DBB2002B06D17B6878
:102AF000002283F83C207868FEF72CF87B680222DD
:102B000083F83D207B681A687B68043319461046B9
:102B100000F088FA7B68012283F846207B68012256
:102B200083F83E207B68012283F83F207B680122E6
:102B300083F840207B68012283F841207B680122D2
:102B400083F842207B68012283F843207B680122BE
:102B500083F844207B68012283F845207B680122AA
:102B600083F83D20002318460837BD4680BD00008D
:102B700080B485B000AF78607B6893F83D30DBB2FD
:102B8000012B01D001234EE07B68022283F83D2017
:102B90007B681B68DA687B681B6842F00102DA60B8
:102BA0007B681B68234A934222D07B681B68B3F181
:102BB000804F1DD07B681B681F4A934218D07B68EA
:102BC0001B681E4A934213D07B681B681C4A9342C1
:102BD0000ED07B681B681B4A934209D07B681B6838
:102BE000194A934204D07B681B68184A934211D15A
:102BF0007B681B689B6803F00703FB60FB68062B80
:102C000010D07B681B681A687B681B6842F0010261
:102C10001A6007E07B681B681A687B681B6842F0D3
:102C200001021A60002318461437BD465DF8047B84
:102C3000704700BF00000140000400400008004051
:102C4000000C00400004014000400140001800401A
:102C500080B584B000AF78607B681B68DB68FB6080
:102C60007B681B681B69BB60BB6803F00203002B19
:102C700020D0FB6803F00203002B1BD07B681B688D
:102C80006FF002021A617B6801221A777B681B6869
:102C90009B6903F00303002B03D0786800F0A3F9CD
:102CA00005E0786800F095F9786800F0A6F97B688F
:102CB00000221A77BB6803F00403002B20D0FB68C6
:102CC00003F00403002B1BD07B681B686FF0040229
:102CD0001A617B6802221A777B681B689B6903F480
:102CE0004073002B03D0786800F07DF905E0786828
:102CF00000F06FF9786800F080F97B6800221A779D
:102D0000BB6803F00803002B20D0FB6803F0080326
:102D1000002B1BD07B681B686FF008021A617B6870
:102D200004221A777B681B68DB6903F00303002B1E
:102D300003D0786800F057F905E0786800F049F9A9
:102D4000786800F05AF97B6800221A77BB6803F0B4
:102D50001003002B20D0FB6803F01003002B1BD0C6
:102D60007B681B686FF010021A617B6808221A7773
:102D70007B681B68DB6903F44073002B03D0786821
:102D800000F031F905E0786800F023F9786800F088
:102D900034F97B6800221A77BB6803F00103002B2B
:102DA0000CD0FB6803F00103002B07D07B681B6885
:102DB0006FF001021A61786800F001F9BB6803F056
:102DC0008003002B0CD0FB6803F08003002B07D09E
:102DD0007B681B686FF080021A61786800F0EEFA79
:102DE000BB6803F04003002B0CD0FB6803F04003EA
:102DF000002B07D07B681B686FF040021A6178686F
:102E000000F005F9BB6803F02003002B0CD0FB6831
:102E100003F02003002B07D07B681B686FF02002B3
:102E20001A61786800F0C0FA00BF1037BD4680BD57
:102E300080B584B000AF786039600023FB737B6895
:102E400093F83C30012B01D10223B4E07B680122CE
:102E500083F83C207B68022283F83D207B681B6856
:102E60009B68BB60BB6823F07703BB60BB6823F43F
:102E70007F43BB607B681B68BA689A603B681B68CD
:102E8000B3F5005F3ED0B3F5005F00F28780B3F585
:102E9000805F00F08680B3F5805F7FD8702B1AD0FA
:102EA000702B7BD8602B50D0602B77D8502B3CD028
:102EB000502B73D8402B58D0402B6FD8302B64D078
:102EC000302B6BD8202B60D0202B67D8002B5CD008
:102ED000102B5AD062E07B6818683B6899683B68A1
:102EE0005A683B68DB6800F0C3F97B681B689B6825
:102EF000BB60BB6843F07703BB607B681B68BA6844
:102F00009A604FE07B6818683B6899683B685A682C
:102F10003B68DB6800F0ACF97B681B689A687B68EB
:102F20001B6842F480429A603CE07B6818683B680A
:102F300059683B68DB681A4600F020F97B681B681B
:102F40005021184600F079F92CE07B6818683B683E
:102F500059683B68DB681A4600F03FF97B681B68DC
:102F60006021184600F069F91CE07B6818683B682E
:102F700059683B68DB681A4600F000F97B681B68FB
:102F80004021184600F059F90CE07B681A683B684C
:102F90001B681946104600F050F903E00123FB734B
:102FA00000E000BF7B68012283F83D207B6800229F
:102FB00083F83C20FB7B18461037BD4680BD80B4AB
:102FC00083B000AF786000BF0C37BD465DF8047B6E
:102FD000704780B483B000AF786000BF0C37BD4647
:102FE0005DF8047B704780B483B000AF786000BFA9
:102FF0000C37BD465DF8047B704780B483B000AFEA
:10300000786000BF0C37BD465DF8047B704780B424
:1030100083B000AF786000BF0C37BD465DF8047B1D
:103020007047000080B485B000AF786039607B687D
:103030001B68FB607B68464A934213D07B68B3F100
:10304000804F0FD07B68434A93420BD07B68424A43
:10305000934207D07B68414A934203D07B68404A41
:10306000934208D1FB6823F07003FB603B685B6808
:10307000FA681343FB607B68354A93422BD07B6828
:10308000B3F1804F27D07B68324A934223D07B68CC
:10309000314A93421FD07B68304A93421BD07B68F1
:1030A0002F4A934217D07B682E4A934213D07B68F5
:1030B0002D4A93420FD07B682C4A93420BD07B68F9
:1030C0002B4A934207D07B682A4A934203D07B68FD
:1030D000294A934208D1FB6823F44073FB603B68A4
:1030E000DB68FA681343FB60FB6823F080023B68EF
:1030F0005B691343FB607B68FA681A603B689A68F7
:103100007B68DA623B681A687B689A627B68104A5F
:10311000934203D07B68124A934203D13B681A69F9
:103120007B681A637B6801225A617B681B6903F024
:103130000103012B05D17B681B6923F001027B6829
:103140001A6100BF1437BD465DF8047B704700BFAD
:10315000000001400004004000080040000C004056
:10316000000401400040014000440140004801408B
:1031700000180040001C00400020004080B487B0D0
:1031800000AFF860B9607A60FB681B6A7B61FB681E
:103190001B6A23F00102FB681A62FB689B693B61B2
:1031A0003B6923F0F0033B617B681B013A691343E1
:1031B0003B617B6923F00A037B617A69BB68134337
:1031C0007B61FB683A699A61FB687A691A6200BFA1
:1031D0001C37BD465DF8047B704780B487B000AFF4
:1031E000F860B9607A60FB681B6A7B61FB681B6AE8
:1031F00023F01002FB681A62FB689B693B613B6924
:1032000023F470433B617B681B033A6913433B61C2
:103210007B6923F0A0037B61BB681B017A691343C0
:103220007B61FB683A699A61FB687A691A6200BF40
:103230001C37BD465DF8047B704780B485B000AF95
:10324000786039607B689B68FB60FB6823F07003E3
:10325000FB603A68FB68134343F00703FB607B683D
:10326000FA689A6000BF1437BD465DF8047B70476A
:1032700080B487B000AFF860B9607A603B60FB68EB
:103280009B687B617B6923F47F437B613B681A0207
:103290007B681A43BB6813437A6913437B61FB68FD
:1032A0007A699A6000BF1C37BD465DF8047B7047A1
:1032B00080B485B000AF786039607B6893F83C30AB
:1032C000012B01D102235AE07B68012283F83C20C4
:1032D0007B68022283F83D207B681B685B68FB608B
:1032E0007B681B689B68BB60FB6823F07003FB6016
:1032F0003B681B68FA681343FB607B681B68FA68CD
:103300005A607B681B68214A934222D07B681B6805
:10331000B3F1804F1DD07B681B681D4A934218D0C3
:103320007B681B681B4A934213D07B681B681A4A50
:1033300093420ED07B681B68184A934209D07B6881
:103340001B68174A934204D07B681B68154A934256
:103350000CD1BB6823F08003BB603B685B68BA6834
:103360001343BB607B681B68BA689A607B68012264
:1033700083F83D207B68002283F83C200023184618
:103380001437BD465DF8047B704700BF0000014064
:103390000004004000080040000C00400004014010
:1033A000004001400018004080B483B000AF786056
:1033B00000BF0C37BD465DF8047B704780B483B016
:1033C00000AF786000BF0C37BD465DF8047B7047E6
:1033D00080B582B000AF78607B68002B01D10123FB
:1033E00042E07B6893F84130DBB2002B06D17B686A
:1033F000002283F840207868FDF7FCFB7B682422DC
:1034000083F841207B681B68DA687B681B6822F4BC
:103410000052DA60786800F02BF87B681B681A6944
:103420007B681B6822F490421A617B681B685A69AA
:103430007B681B6822F02A025A617B681B68DA6885
:103440007B681B6842F40052DA607B6800225A6491
:103450007B68202283F841207B68202283F8422069
:103460007B6800225A63002318460837BD4680BD9A
:103470002DE9B04FC0B000AFC7F8F400D7F8F43072
:103480001B681B6923F44050D7F8F430D968D7F88B
:10349000F4301A6840EA01031361D7F8F4309A68EF
:1034A000D7F8F4301B691A43D7F8F4305B691A4334
:1034B000D7F8F430DB691343C7F8F830D7F8F430A5
:1034C0001B68DB6823F4164121F00C01D7F8F430B7
:1034D0001A68D7F8F8300B43D360D7F8F4301B687C
:1034E0005B6923F44070D7F8F4309969D7F8F43069
:1034F0001A6840EA01035361D7F8F4301A688F4B19
:103500009A4205D0D7F8F4301A688D4B9A4204D10C
:10351000FEF74CF8C7F8FC0003E0FEF733F8C7F8F5
:10352000FC00D7F8F430DB69B3F5004F40F00C81B4
:10353000D7F8FC300022C7F8E830C7F8EC20D7E90C
:103540003A4522462B469118B9655B41FB65D7E9A0
:103550001623214612EB0108294643EB01094FF0DF
:1035600000024FF000034FEAC90343EA58734FEAE1
:10357000C80290469946234618EB0303C7F8E0308B
:103580002B4649EB0303C7F8E430D7F8F4305B6807
:103590000022C7F8D830C7F8DC20D7E936120B462E
:1035A000DB183B65134642EB03037B65D7E9142325
:1035B000D7E93801FCF72CFE02460B46614BA3FB12
:1035C00002235B091C01D7F8FC300022C7F8D03079
:1035D000C7F8D420D7E9348942464B469118B964DC
:1035E0005B41FB64D7E91223414612EB010A4946CD
:1035F00043EB010B4FF000024FF000034FEACB0307
:1036000043EA5A734FEACA0292469B4643461AEB74
:103610000303C7F8C8304B464BEB0303C7F8CC3065
:10362000D7F8F4305B680022C7F8C030C7F8C42070
:10363000D7E930120B46DB183B64134642EB030319
:103640007B64D7E91023D7E93201FCF7E1FD02469C
:103650000B4611463B4BA3FB01235B09642202FB93
:1036600003F3CB1ADB0003F13202364BA3FB022338
:103670005B095B0003F4F8731C44D7F8FC300022AC
:10368000C7F8B830C7F8BC20D7E92E8942464B4668
:103690009118B9635B41FB63D7E90E23414651188A
:1036A000396349464B417B634FF000024FF0000302
:1036B000D7E90CAB5946CB00514643EA517351460A
:1036C000CA0010461946034642469B18C7F8B03058
:1036D0004B460A4642EB0303C7F8B430D7F8F43040
:1036E0005B680022C7F8A830C7F8AC20D7E92A12D7
:1036F0000B46DB18BB62134642EB0303FB62D7E9C0
:103700000A23D7E92C01FCF783FD02460B460D4B3B
:10371000A3FB02135B09642101FB03F3D31ADB0053
:103720003233084AA2FB03235B0903F00702D7F8F0
:10373000F4301B6822449A6006E100BF001001408B
:10374000001401401F85EB51D7F8FC300022C7F868
:10375000A030C7F8A420D7E9288942464B469118E3
:1037600039625B417B62D7E90823414654184946D8
:1037700043EB01054FF000024FF00003EB0043EA7A
:103780005473E20014461D464346E318C7F89830C8
:103790004B4645EB0303C7F89C30D7F8F4305B6821
:1037A0000022C7F89030C7F894204FF000024FF085
:1037B0000003D7E9244529468B00214643EA91734B
:1037C00021468A00D7E92601FCF722FD02460B4676
:1037D000604BA3FB02235B091C01D7F8FC300022DD
:1037E000C7F88830C7F88C20D7E9228942464B4673
:1037F0009118B9615B41FB61D7E906234146511835
:10380000396149464B417B614FF000024FF00003A4
:10381000D7E904AB5946CB00514643EA51735146B0
:10382000CA0010461946034642469B18C7F8803026
:103830004B460A4642EB0303C7F88430D7F8F4300E
:103840005B680022BB67FA674FF000024FF000038D
:10385000D7E91E8949468B00414643EA91734146A8
:103860008A00D7E92001FCF7D3FC02460B4611463B
:10387000384BA3FB01235B09642202FB03F3CB1A41
:103880001B013233334AA2FB03235B0903F0F0032D
:103890001C44D7F8FC3000223B677A67D7E91C89C3
:1038A00042464B469118B9605B41FB60D7E9022361
:1038B00041465118396049464B417B604FF0000248
:1038C0004FF00003D7E900AB5946CB00514643EA1D
:1038D00051735146CA0010461946034642469B188A
:1038E000BB664B460A4642EB0303FB66D7F8F4304F
:1038F0005B6800223B667A664FF000024FF00003DF
:10390000D7E9188949468B00414643EA91734146FD
:103910008A00D7E91A01FCF77BFC02460B460D4BE7
:10392000A3FB02135B09642101FB03F3D31A1B0100
:103930003233084AA2FB03235B0903F00F02D7F8D6
:10394000F4301B6822449A6000BF07F58077BD46BB
:10395000BDE8B08F1F85EB5180B483B000AF034644
:103960003960FB7197F90730002B0ADB3B68DAB24C
:103970000C4997F907301201D2B20B4483F80023A7
:103980000AE03B68DAB20849FB7903F00F03043B15
:103990001201D2B20B441A7600BF0C37BD465DF857
:1039A000047B704700E100E000ED00E080B500AF6F
:1039B00000216FF00400FFF7CFFF00BF80BD0000C3
:1039C00080B483B000AFEFF305833B603B68002B0E
:1039D00003D06FF005037B600CE00A4B1B68002BE3
:1039E00005D1084B01221A6000237B6002E04FF0F2
:1039F000FF337B607B6818460C37BD465DF8047B5F
:103A0000704700BFF400002080B582B000AFEFF334
:103A100005833B603B68002B03D06FF005037B60A0
:103A200010E00B4B1B68012B09D1FFF7BFFF084BC0
:103A300002221A6001F0E0FD00237B6002E04FF0FB
:103A4000FF337B607B6818460837BD4680BD00BFEA
:103A5000F400002080B58EB004AFF860B9607A60E1
:103A600000233B61EFF305837B617B69002B7ED1F3
:103A7000FB68002B7BD080233B621823FB61002373
:103A80007B624FF0FF33BB617B68002B45D07B68C6
:103A90001B68002B02D07B681B687B627B689B697C
:103AA000002B02D07B689B69FB61FB69002B08D06F
:103AB000FB69382B05D87B685B6803F00103002B9A
:103AC00001D0002354E07B685B69002B03D07B6846
:103AD0005B699B083B627B689B68002B0ED07B6810
:103AE000DB685B2B0AD97B681B69002B06D07B68DF
:103AF0005B69002B02D00123BB6110E07B689B68EF
:103B0000002B0CD17B68DB68002B08D17B681B691C
:103B1000002B04D10023BB6101E00023BB61BB6922
:103B2000012B10D17B681B697A689268029201931D
:103B3000FB690093BB683A6A796AF86801F080FB18
:103B400003463B6113E0BB69002B10D13B6A9AB27C
:103B500007F110030193FB690093BB68796AF86869
:103B600001F0CEFB0346012B01D000233B613B69F2
:103B700018462837BD4680BD80B584B000AF786058
:103B8000EFF30583BB60BB68002B03D06FF0050328
:103B9000FB6007E00023FB607B68002B02D07868A5
:103BA00001F0F4FCFB6818461037BD4680BD0000EC
:103BB00080B485B000AFF860B9607A60FB68074AEE
:103BC0001A60BB68064A1A607B6880221A6000BFD0
:103BD0001437BD465DF8047B704700BFF800002035
:103BE0005401002080B485B000AFF860B9607A60FD
:103BF000FB68074A1A60BB68064A1A607B684FF484
:103C000080721A6000BF1437BD465DF8047B7047B0
:103C100054030020B003002080B58AB000AF786064
:103C20000023FB6101F050FD5C4B1B68002B01D1B0
:103C300000F024F95A4B1A687B681340002B40F0BF
:103C400095807B68002B1ED008227B6813447B6024
:103C50007B6803F00703002B15D07B6823F0070374
:103C600008337B607B6803F00703002B0BD04FF019
:103C7000500383F31188BFF36F8FBFF34F8F7B61C6
:103C800000BF00BFFDE77B68002B6FD0454B1B6872
:103C90007A689A426AD8444B3B62434B1B687B620A
:103CA00004E07B6A3B627B6A1B687B627B6A5B68C1
:103CB0007A689A4203D97B6A1B68002BF1D1374B93
:103CC0001B687A6A9A4251D03B6A1B6808221344E7
:103CD000FB617B6A1A683B6A1A607B6A5A687B6878
:103CE000D21A08235B009A4220D97A6A7B6813446F
:103CF000BB61BB6903F00703002B0BD04FF05003EF
:103D000083F31188BFF36F8FBFF34F8F3B6100BF09
:103D100000BFFDE77B6A5A687B68D21ABB695A60AC
:103D20007B6A7A685A60B86900F00AF91D4B1A6814
:103D30007B6A5B68D31A1B4A13601A4B1A681B4BC9
:103D40001B689A4203D2174B1B68184A13607B6AA0
:103D50005A68134B1B681A437B6A5A607B6A0022BD
:103D60001A60134B1B680133114A136001F0BAFC4F
:103D7000FB6903F00703002B0BD04FF0500383F3D4
:103D80001188BFF36F8FBFF34F8FFB6000BF00BF81
:103D9000FDE7FB6918462837BD4680BDB8430020C3
:103DA000CC430020BC430020B0430020C04300208F
:103DB000C443002080B586B000AF78607B687B612B
:103DC0007B68002B4FD008235B427A6913447B61E8
:103DD0007B693B613B695A68254B1B681340002B8C
:103DE0000BD14FF0500383F31188BFF36F8FBFF3F4
:103DF0004F8FFB6000BF00BFFDE73B691B68002BD6
:103E00000BD04FF0500383F31188BFF36F8FBFF3D4
:103E10004F8FBB6000BF00BFFDE73B695A68144B82
:103E20001B681340002B1ED03B691B68002B1AD166
:103E30003B695A680E4B1B68DB431A403B695A606A
:103E400001F042FC3B695A680A4B1B681344094A5B
:103E50001360386900F074F8074B1B680133064A99
:103E6000136001F03FFC00BF1837BD4680BD00BFA6
:103E7000CC430020BC430020C843002080B485B060
:103E800000AF4FF47053BB60274BFB60FB6803F03F
:103E90000703002B0CD0FB680733FB60FB6823F0A3
:103EA0000703FB60BA68FB68D31A1F4A1344BB6060
:103EB000FB687B601D4A7B6813601C4B00225A60C4
:103EC0007B68BA681344FB600822FB689B1AFB609E
:103ED000FB6823F00703FB60FB68154A1360144B73
:103EE0001B6800225A60124B1B6800221A607B6814
:103EF0003B603B68FA68D21A3B685A600C4B1A6800
:103F00003B681A603B685B680A4A13603B685B6801
:103F1000094A1360094B4FF000421A6000BF143782
:103F2000BD465DF8047B7047B0070020B043002019
:103F3000B8430020C0430020BC430020CC430020F5
:103F400080B485B000AF7860284BFB6002E0FB686E
:103F50001B68FB60FB681B687A689A42F7D8FB68AD
:103F6000BB60FB685B68BA6813447A689A4208D100
:103F7000FB685A687B685B681A44FB685A60FB6898
:103F80007B607B68BB607B685B68BA681A44FB68CF
:103F90001B689A4218D1FB681A68154B1B689A4235
:103FA0000DD07B685A68FB681B685B681A447B68A5
:103FB0005A60FB681B681A687B681A6008E00C4B43
:103FC0001A687B681A6003E0FB681A687B681A60ED
:103FD000FA687B689A4202D0FB687A681A6000BF70
:103FE0001437BD465DF8047B704700BFB043002026
:103FF000B843002080B483B000AF78607B6803F1E1
:1040000008027B685A607B684FF0FF329A607B68D9
:1040100003F108027B68DA607B6803F108027B68C1
:104020001A617B6800221A6000BF0C37BD465DF83C
:10403000047B704780B483B000AF78607B68002257
:104040001A6100BF0C37BD465DF8047B704780B431
:1040500085B000AF786039607B685B68FB603B6867
:10406000FA685A60FB689A683B689A60FB689B68CC
:104070003A685A60FB683A689A603B687A681A61E5
:104080007B681B685A1C7B681A6000BF1437BD46EA
:104090005DF8047B704780B485B000AF786039600C
:1040A0003B681B68BB60BB68B3F1FF3F03D17B6813
:1040B0001B69FB600CE07B680833FB6002E0FB6877
:1040C0005B68FB60FB685B681B68BA689A42F6D263
:1040D000FB685A683B685A603B685B683A689A605C
:1040E0003B68FA689A60FB683A685A603B687A688D
:1040F0001A617B681B685A1C7B681A6000BF143702
:10410000BD465DF8047B704780B485B000AF786031
:104110007B681B69FB607B685B687A6892689A6061
:104120007B689B687A6852685A60FB685B687A684B
:104130009A4203D17B689A68FB685A607B680022C8
:104140001A61FB681B685A1EFB681A60FB681B68D3
:1041500018461437BD465DF8047B704780B485B0BF
:1041600000AFF860B9607A60FB68043BFB60FB68F5
:104170004FF080721A60FB68043BFB60BB6823F061
:104180000102FB681A60FB68043BFB600C4AFB6899
:104190001A60FB68143BFB607A68FB681A60FB6876
:1041A000043BFB60FB686FF002021A60FB68203B77
:1041B000FB60FB6818461437BD465DF8047B70470A
:1041C000C541000880B485B000AF00237B60134B6D
:1041D0001B68B3F1FF3F0BD04FF0500383F31188FE
:1041E000BFF36F8FBFF34F8FFB6000BF00BFFDE7D2
:1041F0004FF0500383F31188BFF36F8FBFF34F8FDE
:10420000BB6000BF00BF7B68002BFCD000BF00BFBD
:104210001437BD465DF8047B704700BF0C000020DA
:10422000074B19680868B0E8F04F80F30988BFF3BE
:104230006F8F4FF0000080F311887047AFF300805C
:104240001844002000BF00BF08480068006880F3E1
:1042500008884FF0000080F3148862B661B6BFF39F
:104260004F8FBFF36F8F00DF00BF00BF08ED00E08E
:1042700080B586B000AF474B1B68474A93420BD1CD
:104280004FF0500383F31188BFF36F8FBFF34F8F4D
:10429000FB6000BF00BFFDE73E4B1B683F4A9342F7
:1042A0000BD14FF0500383F31188BFF36F8FBFF32F
:1042B0004F8F3B6100BF00BFFDE7394B7B617B69DE
:1042C0001B78DBB27B607B69FF221A707B691B78ED
:1042D000DBB2FB70FB78DBB203F05003DAB2314B98
:1042E0001A70314B07221A6009E02F4B1B68013B03
:1042F0002D4A1360FB78DBB25B00DBB2FB70FB780E
:10430000DBB203F08003802BEFD0274B1B68C3F197
:104310000703042B0BD04FF0500383F31188BFF336
:104320006F8FBFF34F8FBB6000BF00BFFDE71E4B19
:104330001B681B021C4A13601B4B1B6803F4E063E1
:10434000194A13607B68DAB27B691A70174B1B68D5
:10435000164A43F470031360144B1B68134A43F06E
:104360007043136000F0DAF8114B00221A6000F07D
:10437000F9F8104B1B680F4A43F040431360FFF7F6
:1043800063FF01F017FBFFF71DFF002318461837E6
:10439000BD4680BD00ED00E071C20F4170C20F410B
:1043A00000E400E0D0430020D443002020ED00E0F2
:1043B0000C00002034EF00E080B483B000AF4FF079
:1043C000500383F31188BFF36F8FBFF34F8F7B6070
:1043D00000BF104B1B6801330E4A13600D4B1B6866
:1043E000012B10D10C4B1B68DBB2002B0BD04FF014
:1043F000500383F31188BFF36F8FBFF34F8F3B6080
:1044000000BF00BFFDE700BF0C37BD465DF8047B71
:10441000704700BF0C00002004ED00E080B483B0C2
:1044200000AF124B1B68002B0BD14FF0500383F3EE
:104430001188BFF36F8FBFF34F8F7B6000BF00BF4A
:10444000FDE70A4B1B68013B084A1360074B1B68DA
:10445000002B05D100233B603B6883F3118800BF2C
:1044600000BF0C37BD465DF8047B70470C00002090
:10447000EFF30980BFF36F8F154B1A681EF0100F12
:1044800008BF20ED108A20E9F04F10602DE90900E7
:104490004FF0500080F31188BFF34F8FBFF36F8F41
:1044A00001F088FA4FF0000080F3118809BC196808
:1044B0000868B0E8F04F1EF0100F08BFB0EC108A8B
:1044C00080F30988BFF36F8F704700BFAFF30080A0
:1044D0001844002000BF00BF80B582B000AF4FF08D
:1044E000500383F31188BFF36F8FBFF34F8F7B604F
:1044F00000BF01F0A5F90346002B03D0064B4FF097
:1045000080521A6000233B603B6883F3118800BF30
:1045100000BF0837BD4680BD04ED00E080B400AFA9
:104520000B4B00221A600B4B00221A600A4B1B68CF
:104530000A4AA2FB03239B09094A013B1360044B6F
:1045400007221A6000BFBD465DF8047B704700BFBC
:1045500010E000E018E000E000000020D34D621001
:1045600014E000E0DFF80C00016841F47001016024
:10457000704700BF88ED00E080B485B000AFEFF376
:104580000583FB60FB680F2B15D9184AFB681344A1
:104590001B78FB72164B1B78FA7A9A420BD24FF0BB
:1045A000500383F31188BFF36F8FBFF34F8F7B608E
:1045B00000BF00BFFDE70F4B1B6803F4E0620E4B2A
:1045C0001B689A420BD94FF0500383F31188BFF355
:1045D0006F8FBFF34F8F3B6000BF00BFFDE700BF91
:1045E0001437BD465DF8047B704700BFF0E300E080
:1045F000D04300200CED00E0D443002080B584B00F
:1046000000AF786039607B68FB60FB68002B0BD1E2
:104610004FF0500383F31188BFF36F8FBFF34F8FB9
:10462000BB6000BF00BFFDE7FFF7C6FEFB681A686E
:10463000FB68DB6BF968096C01FB03F31A44FB6848
:104640009A60FB6800229A63FB681A68FB685A60EC
:10465000FB681A68FB68DB6B013BF968096C01FBBE
:1046600003F31A44FB68DA60FB68FF2283F84420F6
:10467000FB68FF2283F845203B68002B14D1FB68C0
:104680001B69002B1AD0FB681033184601F042FA60
:104690000346002B12D00D4B4FF080521A60BFF32F
:1046A0004F8FBFF36F8F09E0FB6810331846FFF799
:1046B000A1FCFB6824331846FFF79CFCFFF7AEFE15
:1046C000012318461037BD4680BD00BF04ED00E051
:1046D00080B58EB002AFF860B9607A603B60FB686D
:1046E000002B0BD14FF0500383F31188BFF36F8F72
:1046F000BFF34F8FBB6200BF00BFFDE73B68002BDD
:104700000BD14FF0500383F31188BFF36F8FBFF3CA
:104710004F8F7B6200BF00BFFDE77B68002B02D09C
:10472000BB68002B01D0012300E00023002B0BD13C
:104730004FF0500383F31188BFF36F8FBFF34F8F98
:104740003B6200BF00BFFDE77B68002B02D1BB6866
:10475000002B01D1012300E00023002B0BD14FF0EF
:10476000500383F31188BFF36F8FBFF34F8FFB614B
:1047700000BF00BFFDE750237B617B69502B0BD04E
:104780004FF0500383F31188BFF36F8FBFF34F8F48
:10479000BB6100BF00BFFDE77B693B68FB62FB6A52
:1047A000002B0DD0FB6A012283F8462097F83820B1
:1047B000FB6A009313467A68B968F86800F005F858
:1047C000FB6A18463037BD4680BD80B584B000AF67
:1047D000F860B9607A60FB70BB68002B03D1BB69DD
:1047E000BA691A6002E0BB697A681A60BB69FA6844
:1047F000DA63BB69BA681A640121B869FFF7FEFE83
:10480000BB69FA7883F84C2000BF1037BD4680BDE5
:1048100080B58EB000AFF860B9607A603B6000236D
:104820007B63FB683B633B6B002B0BD14FF050036A
:1048300083F31188BFF36F8FBFF34F8FBB6200BF4D
:1048400000BFFDE7BB68002B03D13B6B1B6C002B4B
:1048500001D1012300E00023002B0BD14FF05003C6
:1048600083F31188BFF36F8FBFF34F8F7B6200BF5D
:1048700000BFFDE73B68022B03D13B6BDB6B012BD9
:1048800001D1012300E00023002B0BD14FF0500396
:1048900083F31188BFF36F8FBFF34F8F3B6200BF6D
:1048A00000BFFDE701F0F6FA0346002B02D17B685A
:1048B000002B01D1012300E00023002B0BD14FF08E
:1048C000500383F31188BFF36F8FBFF34F8FFB61EA
:1048D00000BF00BFFDE7FFF76FFD3B6B9A6B3B6BC3
:1048E000DB6B9A4202D33B68022B29D13A68B96844
:1048F000386B00F037FBF8623B6B5B6A002B10D023
:104900003B6B2433184601F005F90346002B13D006
:104910003F4B4FF080521A60BFF34F8FBFF36F8F42
:104920000AE0FB6A002B07D0394B4FF080521A6027
:10493000BFF34F8FBFF36F8FFFF770FD012363E06D
:104940007B68002B03D1FFF769FD00235CE07B6BE4
:10495000002B06D107F11403184601F03FF901239B
:104960007B63FFF75BFD00F0AFFEFFF725FD3B6BC0
:1049700093F844305BB2B3F1FF3F03D13B6B0022AD
:1049800083F844203B6B93F845305BB2B3F1FF3FB3
:1049900003D13B6B002283F84520FFF73FFD3A1D12
:1049A00007F114031146184601F02EF90346002BB7
:1049B00024D1386B00F0CEFB0346002B18D03B6BA4
:1049C00010337A681146184601F052F8386B00F03F
:1049D00059FB00F087FE0346002B7FF47CAF0C4BA5
:1049E0004FF080521A60BFF34F8FBFF36F8F72E7A3
:1049F000386B00F047FB00F075FE6CE7386B00F099
:104A000041FB00F06FFE002318463837BD4680BDDD
:104A100004ED00E080B590B000AFF860B9607A6056
:104A20003B60FB68BB63BB6B002B0BD14FF05003AB
:104A300083F31188BFF36F8FBFF34F8FBB6200BF4B
:104A400000BFFDE7BB68002B03D1BB6B1B6C002BC9
:104A500001D1012300E00023002B0BD14FF05003C4
:104A600083F31188BFF36F8FBFF34F8F7B6200BF5B
:104A700000BFFDE73B68022B03D1BB6BDB6B012B57
:104A800001D1012300E00023002B0BD14FF0500394
:104A900083F31188BFF36F8FBFF34F8F3B6200BF6B
:104AA00000BFFDE7FFF768FDEFF311824FF0500301
:104AB00083F31188BFF36F8FBFF34F8FFA61BB6130
:104AC000FB697B63BB6B9A6BBB6BDB6B9A4202D35C
:104AD0003B68022B2FD1BB6B93F8453087F83330FE
:104AE000BB6B9B6BFB623A68B968B86B00F03AFA33
:104AF00097F93330B3F1FF3F12D1BB6B5B6A002BE8
:104B000016D0BB6B2433184601F004F80346002B83
:104B10000ED07B68002B0BD07B6801221A6007E067
:104B200097F833300133DBB25AB2BB6B83F84520C0
:104B30000123FB6301E00023FB637B6B7B617B69EB
:104B400083F3118800BFFB6B18464037BD4680BD1C
:104B500080B58CB000AFF860B9607A600023FB626A
:104B6000FB68BB62BB6A002B0BD14FF0500383F391
:104B70001188BFF36F8FBFF34F8F3B6200BF00BF41
:104B8000FDE7BB68002B03D1BB6A1B6C002B01D176
:104B9000012300E00023002B0BD14FF0500383F3DF
:104BA0001188BFF36F8FBFF34F8FFB6100BF00BF52
:104BB000FDE701F06FF90346002B02D17B68002B63
:104BC00001D1012300E00023002B0BD14FF0500353
:104BD00083F31188BFF36F8FBFF34F8FBB6100BFAB
:104BE00000BFFDE7FFF7E8FBBB6A9B6B7B627B6A5C
:104BF000002B1FD0B968B86A00F01EFA7B6A5A1EF3
:104C0000BB6A9A63BB6A1B69002B0FD0BB6A103367
:104C1000184600F07FFF0346002B07D03C4B4FF0B7
:104C200080521A60BFF34F8FBFF36F8FFFF7F6FB11
:104C3000012369E07B68002B03D1FFF7EFFB002322
:104C400062E0FB6A002B06D107F11003184600F062
:104C5000C5FF0123FB62FFF7E1FB00F035FDFFF725
:104C6000ABFBBB6A93F844305BB2B3F1FF3F03D1B7
:104C7000BB6A002283F84420BB6A93F845305BB2DC
:104C8000B3F1FF3F03D1BB6A002283F84520FFF751
:104C9000C5FB3A1D07F110031146184600F0B4FF9A
:104CA0000346002B23D1B86A00F03EFA0346002BDE
:104CB00017D0BB6A24337A681146184600F0D8FE34
:104CC000B86A00F0DFF900F00DFD0346002B89D132
:104CD0000F4B4FF080521A60BFF34F8FBFF36F8FAF
:104CE00080E7B86A00F0CEF900F0FCFC7AE7B86A19
:104CF00000F0C8F900F0F6FCB86A00F015FA0346B7
:104D0000002B3FF46FAF002318463037BD4680BDFF
:104D100004ED00E080B58EB000AF7860396000230C
:104D20007B637B68FB6200233B63FB6A002B0BD138
:104D30004FF0500383F31188BFF36F8FBFF34F8F92
:104D40003B6200BF00BFFDE7FB6A1B6C002B0BD072
:104D50004FF0500383F31188BFF36F8FBFF34F8F72
:104D6000FB6100BF00BFFDE701F094F80346002B94
:104D700002D13B68002B01D1012300E00023002B6E
:104D80000BD14FF0500383F31188BFF36F8FBFF344
:104D90004F8FBB6100BF00BFFDE7FFF70DFBFB6A54
:104DA0009B6BBB62BB6A002B24D0BB6A5A1EFB6A9A
:104DB0009A63FB6A1B68002B04D101F0E5F90246F7
:104DC000FB6A9A60FB6A1B69002B0FD0FB6A1033E9
:104DD000184600F09FFE0346002B07D0544B4FF0BF
:104DE00080521A60BFF34F8FBFF36F8FFFF716FB30
:104DF000012398E03B68002B12D13B6B002B0BD0BA
:104E00004FF0500383F31188BFF36F8FBFF34F8FC1
:104E10007B6100BF00BFFDE7FFF700FB002382E0DE
:104E20007B6B002B06D107F10C03184600F0D6FE71
:104E300001237B63FFF7F2FA00F046FCFFF7BCFAB0
:104E4000FB6A93F844305BB2B3F1FF3F03D1FB6AD6
:104E5000002283F84420FB6A93F845305BB2B3F13B
:104E6000FF3F03D1FB6A002283F84520FFF7D6FA03
:104E70003A4607F10C031146184600F0C5FE0346FA
:104E8000002B32D1F86A00F04FF90346002B26D0F0
:104E9000FB6A1B68002B09D1FFF78EFAFB6A9B683F
:104EA000184601F015F83863FFF7B8FAFB6A2433A7
:104EB0003A681146184600F0DBFDF86A00F0E2F8A7
:104EC00000F010FC0346002B7FF467AF184B4FF047
:104ED00080521A60BFF34F8FBFF36F8F5DE7F86AA0
:104EE00000F0D0F800F0FEFB57E7F86A00F0CAF8CF
:104EF00000F0F8FBF86A00F017F90346002B3FF4C6
:104F00004CAF3B6B002B0DD0FFF756FAF86A00F060
:104F100011F87862FB6A9B68796A184601F0B0F86C
:104F2000FFF77CFA002318463837BD4680BD00BF26
:104F300004ED00E080B485B000AF78607B685B6A08
:104F4000002B06D07B681B6B1B68C3F13803FB602A
:104F500001E00023FB60FB6818461437BD465DF88E
:104F6000047B704780B586B000AFF860B9607A60A6
:104F700000237B61FB689B6B3B61FB681B6C002B18
:104F80000DD1FB681B68002B4DD1FB689B68184650
:104F900001F006F87861FB6800229A6043E07B68C4
:104FA000002B19D1FB685868FB681B6C1A46B9685E
:104FB00001F020FDFB685A68FB681B6C1A44FB6813
:104FC0005A60FB685A68FB689B689A422BD3FB685F
:104FD0001A68FB685A6026E0FB68D868FB681B6C9F
:104FE0001A46B96801F006FDFB68DA68FB681B6CBD
:104FF0005B421A44FB68DA60FB68DA68FB681B688E
:105000009A4207D2FB689A68FB681B6C5B421A44A1
:10501000FB68DA607B68022B05D13B69002B02D06C
:105020003B69013B3B613B695A1CFB689A637B69A6
:1050300018461837BD4680BD80B582B000AF786095
:1050400039607B681B6C002B18D07B68DA687B6842
:105050001B6C1A447B68DA607B68DA687B689B6843
:105060009A4203D37B681A687B68DA607B68D968E8
:105070007B681B6C1A46386801F0BCFC00BF08371F
:10508000BD4680BD80B584B000AF7860FFF794F96D
:105090007B6893F84530FB7311E07B685B6A002BFB
:1050A00012D07B682433184600F034FD0346002BF1
:1050B00001D000F00DFEFB7B013BDBB2FB7397F9E7
:1050C0000F30002BE9DC00E000BF7B68FF2283F893
:1050D0004520FFF7A3F9FFF76FF97B6893F8443099
:1050E000BB7311E07B681B69002B12D07B68103307
:1050F000184600F00FFD0346002B01D000F0E8FD3C
:10510000BB7B013BDBB2BB7397F90E30002BE9DCB4
:1051100000E000BF7B68FF2283F84420FFF77EF9A0
:1051200000BF1037BD4680BD80B584B000AF786049
:10513000FFF742F97B689B6B002B02D10123FB60D8
:1051400001E00023FB60FFF769F9FB6818461037A0
:10515000BD4680BD80B584B000AF7860FFF72CF904
:105160007B689A6B7B68DB6B9A4202D10123FB6000
:1051700001E00023FB60FFF751F9FB681846103788
:10518000BD4680BD80B485B000AF78603960002333
:10519000FB6014E00F4AFB6852F83330002B0BD150
:1051A0000C49FB683A6841F833200A4AFB68DB0087
:1051B00013447A685A6006E0FB680133FB60FB68C1
:1051C000072BE7D900BF00BF1437BD465DF8047B4D
:1051D000704700BFD843002080B586B000AFF860AC
:1051E000B9607A60FB687B61FFF7E6F87B6993F84A
:1051F00044305BB2B3F1FF3F03D17B69002283F8F7
:1052000044207B6993F845305BB2B3F1FF3F03D193
:105210007B69002283F84520FFF700F97B699B6BCF
:10522000002B06D17B6924337A68B968184600F0F0
:1052300045FC7869FFF726FF00BF1837BD4680BDE3
:1052400080B58EB004AFF860B9607A603B607B6B6C
:10525000002B0BD14FF0500383F31188BFF36F8FF6
:10526000BFF34F8F3B6200BF00BFFDE7BB6B002B5E
:105270000BD14FF0500383F31188BFF36F8FBFF34F
:105280004F8FFB6100BF00BFFDE75C233B613B69C3
:105290005C2B0BD04FF0500383F31188BFF36F8F5B
:1052A000BFF34F8FBB6100BF00BFFDE73B69BB6B26
:1052B000002B1ED07B6B002B1BD0BB6B7B627B6AF1
:1052C0007A6B1A637B6A022283F8592000230393C6
:1052D0007B6A029307F1140301933B6B00933B68D5
:1052E0007A68B968F86800F050F8786A00F0DEF87B
:1052F00001E000237B617B6918462837BD4680BDED
:1053000080B58CB004AFF860B9603B601346FB8099
:10531000FB889B001846FEF77FFC78617B69002BB9
:105320000ED05C20FEF778FCF861FB69002B03D0FF
:10533000FB697A691A6305E07869FEF73BFD01E0D5
:105340000023FB61FB69002B17D0FB69002283F867
:105350005920FA8800230393FB690293FB6A0193A7
:10536000BB6A00933B68B968F86800F00EF8F8690A
:1053700000F09CF80123BB6102E04FF0FF33BB61FA
:10538000BB6918462037BD4680BD80B588B000AFE8
:10539000F860B9607A603B603B6B186B7B689B0080
:1053A0001A46A52101F0FAFA3B6B1A6B7B6803F1F0
:1053B0008043013B9B001344BB61BB6923F007039F
:1053C000BB61BB6903F00703002B0BD04FF0500308
:1053D00083F31188BFF36F8FBFF34F8F7B6100BFE3
:1053E00000BFFDE7BB68002B1FD00023FB6112E06C
:1053F000BA68FB69134419783A6BFB691344343378
:105400000A461A70BA68FB6913441B78002B06D051
:10541000FB690133FB61FB690F2BE9D900E000BF99
:105420003B6B002283F8432003E03B6B002283F8B0
:105430003420BB6A372B01D93723BB623B6BBA6A76
:10544000DA623B6BBA6ADA643B6B00221A653B6B2B
:1054500004331846FEF7EEFD3B6B18331846FEF793
:10546000E9FD3B6B3A6B1A61BB6AC3F138023B6BD7
:105470009A613B6B3A6B5A623B6B00225A653B6BFD
:10548000002283F858203A68F968B869FEF766FE8A
:1054900002463B6B1A60FB6A002B02D0FB6A3A6B38
:1054A0001A6000BF2037BD4680BD000080B582B0C5
:1054B00000AF7860FEF780FF2D4B1B6801332C4A4C
:1054C00013602C4B1B68002B09D12A4A7B681360A0
:1054D000274B1B68012B10D100F01EFC0DE0264B62
:1054E0001B68002B09D1234B1B68DA6A7B68DB6AD7
:1054F0009A4202D81F4A7B681360204B1B68013315
:105500001E4A13601D4B1A687B685A647B68DA6A0E
:105510001B4B1B689A4203D97B68DB6A184A1360ED
:105520007B68DA6A13469B0013449B00154A1A44B1
:105530007B68043319461046FEF789FDFEF76EFFBF
:105540000D4B1B68002B0ED00A4B1B68DA6A7B6878
:10555000DB6A9A4207D20C4B4FF080521A60BFF3BD
:105560004F8FBFF36F8F00BF0837BD4680BD00BFB0
:10557000EC48002018440020F8480020084900208A
:10558000F44800201C44002004ED00E080B584B005
:1055900000AF78600023FB607B68002B18D0144BB1
:1055A0001B68002B0BD04FF0500383F31188BFF31F
:1055B0006F8FBFF34F8FBB6000BF00BFFDE700F0F0
:1055C00083F80021786800F03BFE00F08BF8F8606B
:1055D000FB68002B07D1074B4FF080521A60BFF3D6
:1055E0004F8FBFF36F8F00BF1037BD4680BD00BF28
:1055F0001449002004ED00E080B58AB004AF002318
:10560000BB6000237B603A46391D07F1080318464A
:10561000FEF7CEFA39687B68BA68029201930023DC
:10562000009300230A4622492248FFF709FE034659
:10563000214A1360204B1B68002B02D001237B61A1
:1056400001E000237B617B69012B02D100F04CFE5D
:1056500078617B69012B16D14FF0500383F31188D9
:10566000BFF36F8FBFF34F8F3B6100BF134B4FF002
:10567000FF321A60124B01221A60124B00221A608C
:10568000FEF7F6FD0FE07B69B3F1FF3F0BD14FF062
:10569000500383F31188BFF36F8FBFF34F8FFB600D
:1056A00000BF00BFFDE700BF1837BD4680BD00BF8B
:1056B000486A0008E95C0008104900200C490020F5
:1056C000F8480020F048002080B400AF044B1B686D
:1056D0000133034A136000BFBD465DF8047B704789
:1056E0001449002080B584B000AF0023FB60002384
:1056F000BB60424B1B68002B0BD14FF0500383F370
:105700001188BFF36F8FBFF34F8F3B6000BF00BFA7
:10571000FDE7FEF751FE394B1B68013B374A13602A
:10572000364B1B68002B62D1354B1B68002B5ED0BB
:105730002FE0344BDB68DB68FB60FB6818331846EE
:10574000FEF7E2FCFB6804331846FEF7DDFCFB685D
:10575000DA6A2D4B1B689A4203D9FB68DB6A2A4A36
:105760001360FB68DA6A13469B0013449B00274AC8
:105770001A44FB68043319461046FEF768FCFB68C0
:10578000DA6A234B1B68DB6A9A4202D3214B01225F
:105790001A601C4B1B68002BCBD1FB68002B01D07F
:1057A00000F058FB1C4B1B687B607B68002B10D003
:1057B00000F046F80346002B02D0164B01221A6077
:1057C0007B68013B7B607B68002BF1D1124B002290
:1057D0001A60104B1B68002B09D00123BB600F4BD4
:1057E0004FF080521A60BFF34F8FBFF36F8FFEF7F9
:1057F00015FEBB6818461037BD4680BD1449002011
:10580000EC480020AC480020F44800201C44002054
:105810001844002000490020FC48002004ED00E06E
:1058200080B483B000AF054B1B687B607B68184673
:105830000C37BD465DF8047B704700BFF048002080
:1058400080B586B000AF00237B614F4B1B68002BF7
:1058500040F090804D4B1B6801333B614B4A3B69E4
:1058600013603B69002B21D1494B1B681B68002B3F
:105870000BD04FF0500383F31188BFF36F8FBFF34A
:105880004F8F3B6000BF00BFFDE7414B1B68FB60D3
:10589000404B1B683E4A13603E4AFB6813603E4B18
:1058A0001B6801333C4A136000F0D4FA3B4B1B6881
:1058B0003A699A4249D3364B1B681B68002B04D1C6
:1058C000364B4FF0FF321A603FE0314B1B68DB680C
:1058D000DB68BB60BB685B687B603A697B689A4247
:1058E00003D22E4A7B6813602FE0BB68043318464E
:1058F000FEF70AFCBB689B6A002B04D0BB68183318
:105900001846FEF701FCBB68DA6A254B1B689A4211
:1059100003D9BB68DB6A224A1360BB68DA6A1346A4
:105920009B0013449B001F4A1A44BB68043319466A
:105930001046FEF78CFBBB68DA6A1B4B1B68DB6A00
:105940009A42B8D301237B61B5E7174B1B68DA6A2B
:10595000144913469B0013449B000B441B68012B06
:1059600001D901237B61114B1B68002B07D0012358
:105970007B6104E00E4B1B6801330D4A13607B69A9
:1059800018461837BD4680BD14490020F048002055
:10599000A4480020A8480020044900200C49002009
:1059A000F44800201C440020184400200049002036
:1059B000FC48002080B485B000AF284B1B68002B4A
:1059C00003D0274B01221A6042E0254B00221A60C7
:1059D000244B1B68FB6011E0FB68002B0BD14FF0E0
:1059E000500383F31188BFF36F8FBFF34F8F7B603A
:1059F00000BF00BFFDE7FB68013BFB601A49FA6886
:105A000013469B0013449B000B441B68002BE3D000
:105A1000FA6813469B0013449B00134A1344BB606F
:105A2000BB685B685A68BB685A60BB685A68BB68E9
:105A300008339A4204D1BB685B685A68BB685A60F5
:105A4000BB685B68DB68094A1360064AFB68136041
:105A500000BF1437BD465DF8047B70471449002031
:105A600000490020F44800201C4400201844002075
:105A700080B584B000AF786039607B68002B0BD1B3
:105A80004FF0500383F31188BFF36F8FBFF34F8F35
:105A9000FB6000BF00BFFDE7074B1B6818331946CA
:105AA0007868FEF7F8FA0121386800F0C9FB00BFFA
:105AB0001037BD4680BD00BF1844002080B586B0B9
:105AC00000AFF860B9607A60FB68002B0BD14FF033
:105AD000500383F31188BFF36F8FBFF34F8F7B6148
